S11310007E3313BD10EFBD1730BD177BBD1120BD5E
S11310101805BD1A198605B704724FB70473860103
S1131020B7047FBD195FBD19D2BD1A7DBD195FBD5F
S113103019D2B6047FBD11AFBD13014D2617B604F6
S11310407FBD11BBBD11AFBD13014D2763BD2CFB8B
S1131050BD11C420D7B6047FB1049A271D7E331A6C
S113107ABD1A36BD18B081FF2769B70475B6049A3C
S113108ABD11AFB60475BD11FB4D2608CE1AC8BDF5
S113109A1A8B20DFB60475BD1243BD1A7DBD12B684
S10C10AABD11C47E102C7E361524
S11310ED20FECE1B6FFF0468CE0400FF046A8664E5
S11310FDB70475FE0468A6007C046926037C0468A5
S113110DFE046AA7007C046B26037C046A7A0475CA
S113111D26E139CE1BD3FF0468CE0100FF046A8695
S113112D03B704755FFE0468A6007C046926037C7E
S113113D0468FE046AA7007C046B26037C046A5CC5
S113114D26E37A047526DD39CE24007E1161CE277F
S113115D007E1161FF0468CE0100FF046A8603B7A7
S113116D04755FFE0468A6007C046926037C04688C
S113117DFE046AA7007C046B26037C046A5C26E3E8
S113118D7A047526DD39B704658604B70464FE0454
S113119D64A60039B704658604B70464FE0464E7E5
S11311AD0039B7046C8603B0046CB7046D39B70409
S11311BD758603B0047539B6047FBD11BBB7047FC2
S11311CDBD1A3639B704678621B70466FE0466A6D0
S11311DD0039B704678622B70466FE0466A6003993
S11311EDB704678623B70466FE0466E60039B704C0
S11311FD6EBD11934D263D4FB70471B60471810830
S113120D2732BD11DFB7046FBB046EB70470BD1177
S113121D93B1046D2616B60470BB046FB70470BD8C
S113122D1193B1046D27EFB1046C27057C04712073
S113123DCA8601394F39B7046EF6046CBD11A14F3E
S113124DB70471B604718108275EBD11DFB7046F51
S113125DBB046EB70470BD1193B1046D2644B6047E
S113126D70BB046FB70470BD1193B1046D27EFB15A
S113127D046C262EB6046EBB046FB70470B60470EE
S113128DBD1193B1046D261AB60470BD12C0B60417
S113129D70F6046CBD11A1B60470BB046FB7047075
S11312AD20DB7C04717E1250398605B704724FB76A
S11312BD047339FE0472A7007C047326037C047244
S11312CD39B7046EB60472B104762608B60473B148
S11312DD04772718B6047326037A04727A0473FE0E
S11312ED0472A600F6046DBD11A120D8B6046E5F7C
S11312FDBD11A1394FB7047AB6047A81402711BDC7
S113130D11D1BD11FB4D26057C047A20EB860139E4
S108131D4F397E2F0E84
S11313424FB7047AB70484B6047A81402711BD11D9
S1131352D1BD11934D26037C04847C047A20E8B623
S11313620484394FB70482B70483B7047AB6047A83
S11313728140271BBD11D1BD1193810126057C0437
S1131382822007810226037C04837C047A20DE39CE
S10613927E2F4067
S1131400BD1365B6046C8101270DB60483B1048253
S113141022122513868039B60482B104832205255D
S11314200686803986FA39860639BB0474B7048D7A
S11314308608B7048CFE048C398610BD142AA600D5
S10A1440BD11AF397E2FC678
S11316517C049226087C049126037C0490BD1852D4
S1111661B60492840F2603BD166C397E341C29
S11316940000000000000000000000000000000042
S11316A40000000000000000000000000000000032
S10716B4007E32007E
S1131730BD1155BD17BC8131272E81322717813346
S113174026F18603B704938604B704948614B70479
S113175095BD17A5398602B704938603B70494860A
S11317600AB70495BD17A5398601B704938602B755
S113177004948605B70495BD17A539BD115BBD1743
S1131780C181312712813226F58602B7049A860177
S1131790B7049BBD17A5398601B7049A8602B7041E
S11317A09BBD17A5398604B7049CBDF00F24067AA7
S11317B0049C26F6398604B7049C20EECE0335201B
S11317C003CE0335FF046A865FB70478FE046AB665
S11317D00478A7008618B704754FB70476BDF00FD8
S11317E0241C7A047626F67A047526F1B6047881E8
S11317F05F2704865F20028620B7047820CEB704D2
S11318008BB6048B39CE03E0C6208620A700085A85
S113181026FAB604938101270E81022705CE1B60A8
S11318202008CE1B4D2003CE1B3EFF0468CE03E0F0
S1131830FF046AFE0468A60027177C046926037C5B
S11318400468FE046AA7007C046B26037C046A20F7
S1081850E2397E2E00C8
S113188A4FB7047AB6047A81402715BD11D1BD1128
S113189AFB4D26057C047A20EBB6046EB70499390D
S10C18AA86FFB70499397E2A0077
S113193EBDF00F25FB81612506817A22028020B736
S113194E048BC618CE01000926FD5A26F7B6048B61
S113195E398601B70489CE0183FF0487B6048981D1
S113196E09276048B704754848BB04754CB704860C
S113197E8601B7048AB6048A81092735B60486BD62
S113198E1193810127088102270886202006869557
S113199E20028694FE0487A7007C048826037C0418
S11319AE877C048826037C04877C04867C048A2036
S11319BEC4C6307C048826037C04875A26F57C042E
S10A19CE892099397E336D75
S1131A065F810A2505800A5C20F7CB30E7008B301E
S1091A16A701397E337FB5
S1061A367E337F79
S1131A74865FB70392B7039339CE03A0C6208620AA
S1131A84A700085A26FA39FF048EBD1A7DCE03A096
S1131A94FF046AFE048EA60027177C048F26037CA9
S1131AA4048EFE046AA7007C046B26037C046A206B
S1081AB4E2397E3374E9
S1131ABCCE1AEA7E1A8B000000000000494C4C45FB
S1131ACC47414C204D4F56450000000000000000DB
S1131ADC0000000000000000000000000000504165
S1131AEC5353000000000000000000000000000040
S1131AFC00000000000000000000000000000000D6
S1131B0C00000000000000000000000000000000C5
S1131B1C00000000000000000000000000000000B5
S1131B2C00000000000000000000000000000000A5
S1131B3C00004C4556454C3A424547494E4E455299
S1131B4C004C4556454C3A494E5445524D45444932
S1131B5C415445004C4556454C3A414456414E433C
S1131B6C45440003030303030303030303030000BB
S1131B7C000000000000030300000000000000004F
S1131B8C0303000000000000000003030000000237
S1131B9C0100000003030000000102000000030325
S1131BAC000000000000000003030000000000001F
S1131BBC0000030300000000000000000303030303
S1131BCC0303030303030352455645525349202D83
S1131BDC204241534943204D4153544552204C45D6
S1131BEC56454C32494920202020202020202020FA
S1131BFC20202020202020202020202020202020D5
S1131C0C202020202020202020204120422043205E
S1131C1C44204520462047204820202020202020F6
S1131C2C20202020202020202084858985898589D6
S1131C3C8589858985898589858320202020202094
S1131C4C20202020202020312086208620862086DB
S1131C5C2086208620862086208620202020202076
S1131C6C2020202020202020208A85878587858796
S1131C7C8587858785878587858820202020202057
S1131C8C202020202020203220862086208620869A
S1131C9C2086208620862086208620202020202036
S1131CAC2020202020202020208A85878587858756
S1131CBC8587858785878587858820202020202017
S1131CCC2020202020202033208620862086208659
S1131CDC20862086208620862086202020202020F6
S1131CEC2020202020202020208A85878587858716
S1131CFC85878587858785878588202020202020D7
S1131D0C2020202020202034208620862086208617
S1131D1C20862086208620862086202020202020B5
S1131D2C2020202020202020208A858785878587D5
S1131D3C8587858785878587858820202020202096
S1131D4C20202020202020352086208620862086D6
S1131D5C2086208620862086208620202020202075
S1131D6C2020202020202020208A85878587858795
S1131D7C8587858785878587858820202020202056
S1131D8C2020202020202036208620862086208695
S1131D9C2086208620862086208620202020202035
S1131DAC2020202020202020208A85878587858755
S1131DBC8587858785878587858820202020202016
S1131DCC2020202020202037208620862086208654
S1131DDC20862086208620862086202020202020F5
S1131DEC2020202020202020208A85878587858715
S1131DFC85878587858785878588202020202020D6
S1131E0C2020202020202038208620862086208612
S1131E1C20862086208620862086202020202020B4
S1131E2C20202020202020202081858B858B858BD1
S1131E3C858B858B858B858B85822020202020208B
S1131E4C2020202020202020202020202020202082
S1131E5C2020202020202020202020202020202072
S1131E6C2020202020202020202020202020202062
S1131E7C2020202020202020202020202020202052
S1131E8C2020202020202020202020202020202042
S1131E9C2020202020202020202020202020202032
S1131EAC202020202020204C4556454C3A424547C2
S1131EBC494E4E4552202020202020202020202036
S10A1ECC202020202020202B
S11321000B1251582930333A1F263D440E0F5455B3
S11321100D1053562C2D36372B2E35382A2F3439A3
S11321202223404121243F4220253E4318194A4B93
S1132130171A494C151C474E0C115257161B484D83
S10B2200F5F6F7FF01090A0BD2
S113230000000000000000000000000AFE010101BE
S113231001FE0A0000FEFB00000000FBFE000001BD
S113232000000000000001000001000000000000A7
S11323300100000100000000000001000001000095
S113234000000000010000FEFB00000000FBFE0096
S1132350000AFE01010101FE0A0000000000000065
S10723600000000075
S113240020202020202020202020202020202020C8
S113241020202020202020202020202020202020B8
S113242052455645525349202D2042415349432099
S11324304D4153544552204C4556454C3249492050
S11324402020202020202020202020202020202088
S11324502020202020202020202020202020202078
S11324602020202020202020202020202020202068
S11324702020202020202020202020202020202058
S11324802020202020202020202020202020202048
S11324902020202020202020202020202020202038
S11324A020202043484F4F534520434F4D5055540F
S11324B0455220535452454E475448202020202052
S11324C02020202020202020202020202020202008
S11324D020202020202020202020202020202020F8
S11324E020202020202020202020202020202020E8
S11324F020202020202020202020202020202020D8
S11325002020202020203120424547494E4E45526C
S113251020202020202020202020202020202020B7
S113252020202020202020202020202020202020A7
S11325302020202020202020202020202020202097
S11325402020202020203220494E5445524D45441D
S113255049415445202020202020202020202020D4
S11325602020202020202020202020202020202067
S11325702020202020202020202020202020202057
S11325802020202020203320414456414E434544FE
S11325902020202020202020202020202020202037
S11325A02020202020202020202020202020202027
S11325B02020202020202020202020202020202017
S11325C02020202020202020202020202020202007
S11325D020202020202020202020202020202020F7
S11325E020202020202020202020202020202020E7
S11325F020202020202020202020202020202020D7
S113260020202020202020202020202020202020C6
S113261020202020202020202020202020202020B6
S1132620202020202020202053454C454354203195
S11326302D33203F205F2020202020202020202018
S11326402020202020202020202020202020202086
S11326502020202020202020202020202020202076
S11326602020202020202020202020202020202066
S11326702020202020202020202020202020202056
S11326802020202020202020202020202020202046
S11326902020202020202020202020202020202036
S11326A02020202020202020202020202020202026
S11326B02020202020202020202020202020202016
S11326C02020202020202020202020202020202006
S11326D020202020202020202020202020202020F6
S11326E020202020202020202020202020202020E6
S11326F020202020202020202020202020202020D6
S113270020202020202020202020202020202020C5
S113271020202020202020202020202020202020B5
S113272052455645525349202D2042415349432096
S11327304D4153544552204C4556454C324949204D
S11327402020202020202020202020202020202085
S11327502020202020202020202020202020202075
S11327602020202020202020202020202020202065
S11327702020202020202020202020202020202055
S11327802020202020202020202020202020202045
S11327902020202020202020202020202020202035
S11327A02020202020202043484F4F534520504CC8
S11327B04159204F524445522020202020202020DF
S11327C02020202020202020202020202020202005
S11327D020202020202020202020202020202020F5
S11327E020202020202020202020202020202020E5
S11327F020202020202020202020202020202020D5
S113280020202020202020202020202020202020C4
S113281020202020202020202020202020202020B4
S113282020202020202031204649525354202028A3
S1132830424C41434B2920202020202020202020CE
S11328402020202020202020202020202020202084
S11328502020202020202020202020202020202074
S113286020202020202032205345434F4E4420284E
S1132870574849544529202020202020202020206A
S11328802020202020202020202020202020202044
S11328902020202020202020202020202020202034
S11328A02020202020202020202020202020202024
S11328B02020202020202020202020202020202014
S11328C02020202020202020202020202020202004
S11328D020202020202020202020202020202020F4
S11328E020202020202020202020202020202020E4
S11328F020202020202020202020202020202020D4
S113290020202020202020202020202020202020C3
S113291020202020202020202020202020202020B3
S1132920202020202020202053454C454354203192
S11329302D32203F205F2020202020202020202016
S11329402020202020202020202020202020202083
S11329502020202020202020202020202020202073
S11329602020202020202020202020202020202063
S11329702020202020202020202020202020202053
S11329802020202020202020202020202020202043
S11329902020202020202020202020202020202033
S11329A02020202020202020202020202020202023
S11329B02020202020202020202020202020202013
S11329C02020202020202020202020202020202003
S11329D020202020202020202020202020202020F3
S11329E020202020202020202020202020202020E3
S11329F020202020202020202020202020202020D3
S1132A00BD1A7D010101B6049ABD11AFBD3366B68E
S1132A1004A027608601B7049FBD2C80BD2CA2B7FB
S1132A20048B81512741810D27324FB7049FBD2C60
S1132A3080B6048B8149270D814A270E814B270FCD
S1132A40BD2B3B200DBD2B172008BD2B612003BDE2
S1132A502B858601B7049FBD2C8020C04FB7049FEF
S1132A60BD2C80BD2C92394FB7049FBD2C80BD1A5C
S1132A707D86FF3986FF39CE04B0C6404FA70008D3
S1132A805A26FA4FB704A0B704A4B7049DB7049E0E
S1132A908601B704A18601B704A2B604A148B7040D
S1132AA0754848BB0475BB04A2BD11FB4D2728B66D
S1132AB004A48BB0B704678604B70466FE04668674
S1132AC001A7007C04A0B6049D260CB604A1B7049B
S1132AD09DB604A2B7049E7C04A47C04A2B604A2FE
S1132AE0810926B67C04A1B604A1810926A739B6BA
S1132AF004A14A484848BB04A24A8BB0B70467867D
S1132B0004B70466FE0466A60039B604A1B7049DA2
S1132B10B604A2B7049E39B6049DB704A17A04A1F1
S1132B20B604A1270EB6049EB704A2BD2AEF4D2613
S1132B300620EABD2BFB39BD2B0A39B6049DB70428
S1132B40A17C04A1B604A18109270EB6049EB70492
S1132B50A2BD2AEF4D260620E8BD2BAB39BD2B0ABA
S1132B6039B6049EB704A27A04A2B604A2270EB60C
S1132B70049DB704A1BD2AEF4D260620EABD2BFB18
S1132B8039BD2B0A39B6049EB704A27C04A2B6044C
S1132B90A28109270EB6049DB704A1BD2AEF4D26D4
S1132BA00620E8BD2BAB39BD2B0A39B6049D4C81F8
S1132BB00925028601B704A18608B704A38601B7D4
S1132BC004A2B604A1B1049D2608B604A2B1049ED1
S1132BD02706BD2AEF4D261F7C04A2B604A2810954
S1132BE026E07C04A1B604A1810925058601B70469
S1132BF0A17A04A326C739BD2B0A39B6049D4A26F7
S1132C00028608B704A18608B704A38608B704A2FD
S1132C10B604A1B1049D2608B604A2B1049E2706F9
S1132C20BD2AEF4D261B7A04A2B604A226E27A043A
S1132C30A1B604A126058608B704A17A04A326CB6D
S1132C4039BD2B0A39CE0183FF0487B6049D4A2778
S1132C5015B70475B604888B40B7048824037C0434
S1132C60877A047526EEB6049E4A48B70475B604FE
S1132C7088BB0475B7048824037C0487FE04873961
S1132C80BD2C45B6049F2705869DA7003986A5A7B8
S1132C900039B6049D48B704754848BB0475BB04A5
S1132CA09E39BD2C808610B704A54FB704A6BDF08D
S1132CB00F241C7A04A626F67A04A526F1B6049FEE
S1132CC027064FB7049F20DA8601B7049F20D381DB
S1132CD0612506817A2202802081492714814A27AE
S1132CE010814B270C814D2708810D270481512623
S1132CF0B1B7048BBD17A5B6048B39B6047FB104F4
S1132D009A2705CE2D812003CE2D6CFF04A7BD1A72
S1132D108BB6000BB704A98603B704AA8601B704CF
S1132D20ABB6000BB104A927F8B704A97A04AA2703
S1132D301BB604AB27094FB704ABBD1A7D20E2864E
S1132D4001B704ABFE04A7BD1A8B20D5BD1A7D398B
S1132D50000000000000000000000000000000006F
S10F2D6000000000000000000000000063
S1132D6C4E4F204C4547414C204D4F5645202D206D
S1132D7C5041535300434F4D5055544552205041EC
S1062D8C5353009A
S1062E007E329E7D
S1132E35B60474484848B704AD8607B704ACFE0425
S1132E45AC39B604748B80B704AD8607B704ACFE01
S1132E5504ACB6047BA70039B604748B80B704AD03
S1132E658607B704ACFE04ACA60039B704AEB604B5
S1132E7574484848B704ADB604AE444444BB04ADF5
S1132E85B704AD8607B704ACB604AE8407B704AF80
S1132E958680F604AF2706447A04AF20F5B704AF5D
S1132EA5FE04ACA600B404AF39BD2E35C6084FA741
S1132EB500085A26FABD2E358680B704AF4FB704ED
S1132EC57AB7047BB6047A8140273ABD11D1BD1186
S1132ED5FB4D270D7C047BFE04ACA600BA04AFA70A
S1132EE5007C047AB604AF4426128680B704AF7C0E
S1132EF504ADBD1852B60498260720C8B704AF2000
S1132F05C3BD2E4739BD2E47394FB7047AB7047B65
S1132F15B6047A81402720BD11D1BD11FB4D27038D
S1132F257C047B7C047AB6047A840726E3BD1852B4
S1132F35B60498260220D9B6047B394FB7047CB76A
S1132F45047AB6047A81402746BD11D1B70470BD11
S1132F5511934D2725B1046C2714B1046D261BB6B6
S1132F650470BD11ED50FB047CF7047C200CB60401
S1132F7570BD11EDFB047CF7047C7C047AB6047AFD
S1132F85840726BEBD1852B6049827B6868039BD77
S1132F952E5DB7047DB6046CB70478BD11BBBD11B5
S1132FA5AFBD2F0EB7047EB60478BD11AFB6049835
S1132FB52703868039B6047DB0047EBB047C8B80F0
S1132FC539BD1651B604982703868039BD14398650
S1132FD5A0BD142A86FFA700BD2EAEB6049827030C
S1132FE58680398600BD142AA6004D2604BD2F40CF
S1132FF5398640BD142A4FA7008650BD142A860180
S1133005A7008660BD142A4FA700BD14398640BDAC
S1133015142AA600814026037E3144BD2E704D2618
S1133025037E313A8640BD142AA600BD11D1B704EA
S1133035788660BD142A8601A7008670BD142AB659
S11330450478A7008680BD142AB60472A70086906A
S1133055BD142AB60473A7008600BD142AA600B7BA
S113306504758610BD142AA600B704768620BD14FF
S11330752AA600B704778630BD142AA600B70479BA
S1133085B60478BD12437C04748600BD142AB604C4
S1133095754AA700B60476BD11BBB704788610BD82
S11330A5142AB60478A7008620BD142AB6047940EC
S11330B5A7008630BD142AB6047740A700BD2FC6E5
S11330C540B704797A0474BD14398680BD142AA6E0
S11330D500B704768690BD142AA600B704778670D7
S11330E5BD142AA600B70478BD12CEB604982703EA
S11330F57E31ED8650BD142AE600B6047911230C01
S1133105A70086A0BD142AB60478A7008620BD149E
S11331152AE600B60479112302A7008620BD142AE5
S1133125A600B704768630BD142AE600B6047611E7
S113313525037E31ED8640BD142A6C007E300F8652
S113314560BD142AA6004D27037E31EDB6046CB785
S11331550478BD11BBBD11AFBD2F0EB7047EB604F7
S1133165982709B60478BD11AF868039B6047E2741
S11331756DB60478BD11AF8600BD142AA600B70448
S1133185758620BD142AA600B704768630BD142A98
S1133195A600B704777C04748600BD142AB60475AA
S11331A5A700B60478BD11BBB704758610BD142AF3
S11331B5B60475A7008620BD142AB6047740A70077
S11331C58630BD142AB6047640A700BD2FC6407AC2
S11331D50474BD1439B60498270386803939B604B6
S11331E578BD11AFBD1400398650BD142AA6003927
S11332004FB70490B70491B70492B70498BD3287BE
S1133210BD166CB6049BBD11AFBD188ABD1852B65D
S113322004982659BD1342BD1852B60498264EB6CA
S1133230048481042205B704852006B60494B704E7
S1133240854FB704748600BD142AB60485A700868A
S113325010BD142AB6049BA7008620BD142A86013B
S1133260A7008630BD142A86FFA700BD14444FB7BB
S1133270047486A0BD142AA60081FF2603B604990F
S1133280B70475BD166C39B6000BB704F0B704F279
S1133290B704964FB704F1B60495B7049739B6044A
S11332A0982624B6000BB704F2B004F0B704F1B1C9
S11332B00495240AB60495B004F1B70497394FB7BE
S10B32C004978601B704983954
S11333138E0FFF0E7E1003BD1AB6BD16B5B6049B01
S1133323BD11AFB60475BD11FB4D261CB6049BBD80
S113333311AFBD188AB6049981FF271EB70475B669
S11333430475BD11FB4D2712B60475BD1243BD1A96
S11333537DBD12B6BD11C47E102CBD1A7DBD12B63F
S11333637E102CBD2A77BD342F39BD1365BD337F41
S113337339BD1A7D4FB704F1BD337F39B6047FB12C
S1133383049A2705CE35492003CE347DBD33DFB6F9
S1133393049A8101271E8694B701D98695B701F94A
S11333A3B60483CE01DDBD1A06B60482CE01FDBD8B
S11333B31A06201C8695B701D98694B701F9B60479
S11333C382CE01DDBD1A06B60483CE01FDBD1A0605
S11333D3B6047FB1049A2703BD341C39FF04F4CE29
S11333E30174FF04F68611B704F8860CB704F9FEDA
S11333F304F4A60008FF04F4FE04F6A70008FF047F
S1133403F67A04F926E9B604F78B14B704F7240310
S11334137C04F67A04F826D239B604F1CE0297BDB9
S11334231A06B60495CE029ABD1A0639CE04B0FF25
S113343304F4CE0183FF04F68608B704F88608B7BC
S113344304F9FE04F4A60008FF04F44D2707FE0460
S1133453F686A5A700B604F78B02B704F724037C0A
S113346304F67A04F926DBB604F78B30B704F724A1
S1133473037C04F67A04F826C4392D2D2D2D2D2D25
S11334832D2D2D2D2D2D3E20594F5552205455525F
S11334934E202D2D2D2D2D2D2D2D2D2D2D2D594FF3
S11334A355202058202020303020434F4D202058D1
S11334B32020203030202D2D2D2D2D2D2D2D2D2D63
S11334C32D2D202020204D4F564520202020202024
S11334D3202020492020202020202020204A202B87
S11334E3204B2020202020202020204D202020207D
S11334F32020202020202020202020202020205293
S1133503455455524E3D5055542020513D51554933
S11335135420202020202020202020202020202070
S11335232020A5203D204C4547414C20202020202D
S1133533202020202020202020202D2D2D2D2D2D36
S11335432D2D2D2D2D2D2D2D2D2D2D2D2D2D2D2DA4
S11335532D2D3E20434F4D205455524E20202D2DCA
S11335632D2D2D2D2D2D2D2D2D2D594F55202058FD
S1133573202020303020434F4D202058202020305D
S113358330202D2D2D2D2D2D2D2D2D2D2D2D202088
S11335935448494E4B494E472020202020202020C8
S11335A32020202020202020454C415053454420F6
S11335B3202020202030302F323020534543202038
S11335C32020202020202020202020504C4541531F
S11335D3452057414954202020202020202020200A
S11335E320202020202020202020202020202020D4
S11335F320202020202020202020202020202020C4
S11336032020202020202D2D2D2D2D2D2D2D2D2D31
S11336132D2DBD195FBD1365BD1A7DCE36C8BD33CF
S1133623DFBD3661B6049A81012708B60483B10469
S1133633822006B60482B104832207250ACE37AC5E
S11336432008CE37942003CE37A0BD36A2BD193E41
S1133653815226037E1003815126F27E10EDB604B7
S11336639A8101271D8694B701D98695B701F9B6C6
S11336730483CE01DDBD1A06B60482CE01FDBD1A54
S113368306398695B701D98694B701F9B60482CE73
S113369301DDBD1A06B60483CE01FDBD1A0639FF4A
S11336A304F4CE0194FF04F6860CB704F9FE04F483
S11336B3A60008FF04F4FE04F6A70008FF04F67A44
S11336C304F926E9392D2D2D2D2D2D2D2D2D2D2DBF
S11336D32D2020202020202020202020202D2D2DAF
S11336E32D2D2D2D2D2D2D2D2D594F552020582089
S11336F32020303020434F4D2020582020203030CC
S1133703202D2D2D2D2D2D2D2D2D2D2D2D20202016
S113371320202020202020202020202020202020A2
S11337232020202020202020202020202020202092
S11337332020202020202020202020202020202082
S113374320202020202020202020523D5245535465
S11337534152542020202020513D515549542020CA
S11337632020202020202020202020202020202052
S11337732020202020202020202020202020202042
S113378320202020202D2D2D2D2D2D2D2D2D2D2DA3
S11337932D2020594F552057494E202020202043C7
S11337A34F4D2057494E532020202020204452417E
S11337B35720202020524556455253492056312E36
S11337C33000434F50595249474854202843292035
S11337D3323032362048414B5520534F46542057FC
S11337E34F524B5300414C4C2052494748545320A9
S10D37F352455345525645442E003A
S9031000EC
